:020000040800F2
:10000000A83100209D01000871270008DD230008A9
:100010006D270008910500085B3000080000000013
:10002000000000000000000000000000B32B0008EA
:10003000430700080000000037020008B52B000845
:10004000B7010008B7010008B7010008B7010008B0
:10005000B7010008B7010008B7010008B7010008A0
:10006000B7010008B7010008B7010008B701000890
:10007000B7010008B7010008B7010008B701000880
:10008000B7010008B7010008B7010008B701000870
:10009000B7010008B7010008B7010008B701000860
:1000A000B7010008012D0008B7010008B7010008DA
:1000B000B7010008B7010008B7010008B701000840
:1000C000B7010008B7010008B7010008B701000830
:1000D000B7010008B7010008B7010008B701000820
:1000E000B7010008B7010008B7010008B701000810
:1000F000B7010008B7010008B7010008B701000800
:10010000B7010008B7010008B7010008B7010008EF
:10011000B7010008B7010008B7010008B7010008DF
:1001200095050008B7010008B7010008B7010008ED
:10013000B70100080000000000000000B70100083F
:10014000B7010008B7010008B7010008B7010008AF
:10015000B7010008B7010008B7010008B70100089F
:10016000B7010008B7010008B7010008B70100088F
:10017000B7010008B70100080000000000000000FF
:10018000B7010008B7010008DFF80CD000F0D8F87C
:100190000048004761310008A83100200648804728
:1001A00006480047FEE7FEE7FEE7FEE7FEE7FEE75C
:1001B000FEE7FEE7FEE7FEE79D2C00088901000848
:1001C0002A49487A28B172B6C87900F10100C8718D
:1001D00062B6704772B626484FF0FF01017023499E
:1001E0004FF0000080F30988C8710872A0F1010087
:1001F00008714FF00100487208E01C49487AC0B10C
:1002000072B6C879A0F10100C87102E0174972B650
:10021000C87970B9087A60B9086890FAA0F0B0FAA5
:1002200080F048710A79904203D012484FF0805113
:10023000016062B670470D498A7A0F4B72B6EFF3D0
:10024000098028B120E9F00F0C7902FB0435286001
:100250004C790C7102FB04352868B0E8F00F80F38C
:1002600009884EF0040E62B670470000FC29002099
:1002700022ED00E004ED00E0BC2900202DE9F05F54
:100280000546002092469B46884606468146402405
:100290001BE0284641464746224600F041F85346B7
:1002A0005A46C01A914110D311461846224600F012
:1002B00028F82D1A67EB01084F462246012000213D
:1002C00000F01FF817EB00094E41201EA4F10104B5
:1002D000DFDC484631462A464346BDE8F09FD2B2AD
:1002E00001E000F8012B491EFBD270470022F6E71F
:1002F00010B513460A4604461946FFF7F0FF20469C
:1003000010BD202A04DB203A00FA02F100207047D9
:100310009140C2F1200320FA03F319439040704743
:10032000202A04DB203A21FA02F00021704721FA4A
:1003300002F3D040C2F120029140084319467047B1
:10034000064C074D06E0E06840F0010394E8070022
:1003500098471034AC42F6D3FFF71AFF205200083A
:100360004052000830B58C1810F8012B12F00F0322
:1003700001D110F8013B120906D110F8012B03E05E
:1003800010F8015B01F8015B5B1EF9D101E001F897
:10039000013B521EFBD1A142E6D3002030BD70B517
:1003A0000546AC6B206C00F0500050BB206C40F454
:1003B000007020642068806800F04050E8B9A069AF
:1003C000D8B92068C06A00F4700020B12068806845
:1003D00000F4806088B92068406820F0200021681F
:1003E0004860206C20F480702064206C00F4805001
:1003F00018B9206C40F001002064204600F06AFA31
:1004000003E0A06BC16C2846884770BD70B50546F7
:10041000AC6B40202064606C40F0040060642046B7
:1004200000F05AFA70BD70B50446A56B284600F07E
:1004300052FA70BD54494A6822F440324A604A6810
:1004400043681A434A600268526822F48072036863
:100450005A6002685368026943EA022203685A60DC
:100460000268526822F0407203685A60026852685B
:1004700083681A4303685A600268926822F4006233
:1004800003689A6002689268C3681A4303689A60B6
:100490003E4B826A9A4218D00268926822F07062DB
:1004A00003689A6002689268836A1A4303689A60D4
:1004B0000268926822F0405203689A60026892686B
:1004C000C36A1A4303689A600BE00268926822F0DC
:1004D000706203689A600268926822F04052036872
:1004E0009A600268926822F0020203689A600268C9
:1004F0009368826943EA420203689A60026AA2B181
:100500000268526842F4006203685A6002685268E6
:1005100022F4604203685A6002685368426A521EBD
:1005200043EA423203685A6005E00268526822F4E6
:10053000006203685A600268D26A22F4700203689B
:10054000DA620268D36A828B521E43EA025203685F
:10055000DA620268926822F4007203689A600268A4
:100560009368026B43EA422203689A6002689268C9
:1005700022F4806203689A6002689368426943EAE1
:10058000822203689A607047002301400100000F37
:1005900000BFFEE770B5FFF713FE244E2448006845
:1005A000006800F0080000B1083E356894F830009B
:1005B000A0B9A06A401CA062A06A192825D3606A6D
:1005C00028446062A06A4B281FD33221606A90FBE6
:1005D000F1F0E062012084F8300016E0E06A2D1AA4
:1005E0006D43A0692844A0616068401C6060E168B8
:1005F00088420AD3A069E0610020A0616068A06021
:1006000000206060012002F0FBF8094800F020FBA8
:10061000084890F8310030B10020064981F83100D7
:10062000012002F0EDF8FFF7E8FD70BD8C2B0020F3
:10063000842800201C2B002001460878103818233D
:10064000B0FBF3F20848805CC865032A05D9086846
:100650006FF30900001D886503E008686FF3090067
:100660008865886D70470000FC3100080146002055
:100670008A6A8B69CBB932B1012A0DD0022A03D024
:10068000032A10D10EE000BFCB6A03F08073B3F1F0
:10069000807F00D1012007E0CB6AB3F1C07F00D199
:1006A000012001E000E000BF34E08B69B3F5005F9A
:1006B0001AD132B1012A07D0022A03D0032A11D15C
:1006C0000AE000BF01200EE0CB6A03F08073B3F1B3
:1006D000807F00D1012006E0CB6AB3F1C07F00D15A
:1006E000012000E000BF15E032B1012A05D0022A46
:1006F00004D0032A0CD103E000BF00BF012008E0B2
:10070000CB6A03F08073B3F1807F00D1012000E059
:1007100000BF00BF704730B50468246824F480240B
:1007200005682C60046863608468402C04D1046808
:10073000A2600468E16003E00468A1600468E2600C
:1007400030BD70477047000038B502460020009069
:1007500000BF92F83C00012801D1022038BD0120E1
:1007600082F83C0000BF0868092816D91068C068E4
:100770000C780A3C04EB44050724AC40A043146801
:10078000E0600C780A3C04EB44048868A0401468DC
:10079000E46820431468E06013E0106800690C7896
:1007A00004EB44050724AC40A043146820610C7896
:1007B00004EB44048868A04014682469204314684A
:1007C00020614868072817D21068406B0C79641EB6
:1007D00004EB84051F24AC40A043146860630888C0
:1007E00080B20C79641E04EB8404A0401468646B2E
:1007F00020431468606331E048680D2817D2106800
:10080000006B0C79E41F04EB84051F24AC40A0436B
:1008100014682063088880B20C79E41F04EB840418
:10082000A0401468246B20431468206316E010680D
:10083000C06A0C790D3C04EB84051F24AC40A04336
:100840001468E062088880B20C790D3C04EB8404E3
:10085000A0401468E46A20431468E062194B1A4C03
:100860001068A04206D10868122803D1586840F4E5
:1008700080005860144C1068A0421CD108681028F1
:1008800002D00868112816D1586840F4000058605A
:10089000086810280FD10D4800680D4CB0FBF4F02B
:1008A00000EB80004000009002E00098401E0090A5
:1008B00000980028F9D100BF002082F83C0000BF5A
:1008C00000BF4BE700230140002001403000002022
:1008D00040420F00704770477047000070B50446F3
:1008E00000250CB9012070BD1549A06A884200D0CE
:1008F00000BF206C30B90020606484F83C002046C2
:1009000000F020F8206C00F0100088B9206C20F472
:10091000885040F0020020642046FFF78BFD002045
:100920006064206C20F0020040F00100206400E0D0
:10093000012500BF002084F83C0000BF2846D2E714
:100940000100000F10B586B00446142101A8FFF77E
:10095000CDFC28492068884249D100BF0020009082
:100960002548006840F48070234908600846006804
:1009700000F48070009000BF00BF00BF0020009016
:100980001D481438006840F001001B491439086004
:100990000846006800F00100009000BF00BF03207F
:1009A000019002900020039001A9144800F036FB4A
:1009B00013481449086000204860002111488160F4
:1009C000C1604FF4806101618900416189008161EA
:1009D0008911C16100210162416200F059FA08B138
:1009E000FFF7B0FE00BF0748A063846300BF06B0F6
:1009F00010BD0000002001404438024000000240C9
:100A0000106402408428002008B5014600200090B0
:100A100000BF91F83C00012801D1022008BD01204F
:100A200081F83C0000BF0868806800F00100A0B9B0
:100A30000868806840F001000B6898602E480068E4
:100A40002E4BB0FBF3F000EB4000009002E000986A
:100A5000401E009000980028F9D10868806800F0D6
:100A60000100002845D0086C40F20163984340F42F
:100A7000807008640868406800F4806028B1086CE1
:100A800020F4005040F480500864086C00F480505A
:100A900020B1486C20F00600486401E00020486462
:100AA00000BF002081F83C0000BF154A6FF0220013
:100AB0000B681860506800F01F0058B9086880681B
:100AC00000F04050A8B90868806840F080400B688A
:100AD00098600EE00B4B086898420AD1086880685D
:100AE00000F0405028B90868806840F080400B68EA
:100AF0009860002092E700003000002040420F0084
:100B00000023014000200140F8B504460D4616467A
:100B10000020009000BF94F83C00012801D1022081
:100B2000F8BD012084F83C0000BF2068806800F018
:100B30000100A0B92068806840F001002168886049
:100B40003C4800683C49B0FBF1F000EB40000090ED
:100B500002E00098401E009000980028F9D120681B
:100B6000806800F00100002862D0206C40F2016132
:100B7000884340F4807020642068406800F48060FE
:100B800028B1206C20F4005040F480502064206C88
:100B900000F4805020B1606C20F00600606401E039
:100BA0000020606400BF002084F83C0000BF234F99
:100BB0002348A16BC8632348A16B08642248A16B3A
:100BC000C8646FF02200216808602068406840F027
:100BD0008060216848602068806840F480702168E7
:100BE0008860226802F14C0133462A46A06B00F06F
:100BF000C5F9786800F01F0058B92068806800F0D7
:100C0000405028B92068806840F0804021688860A2
:100C10000EE00E49206888420AD12068806800F002
:100C2000405028B92068806840F080402168886082
:100C3000002075E73000002040420F0000230140F3
:100C40009F030008270400080D040008002001404D
:100C5000F8B50446002000908C4800684FF4165107
:100C6000B0FBF1F7A56D2E6894F85C100820884061
:100C7000304098B12068006800F0040070B120682E
:100C8000006820F004002168086094F85C100820D7
:100C90008840A860606D40F00100606594F85C10C9
:100CA00001208840304068B12068406900F0800031
:100CB00040B194F85C1001208840A860606D40F05D
:100CC0000200606594F85C1004208840304068B1F0
:100CD0002068006800F0020040B194F85C10042025
:100CE0008840A860606D40F00400606594F85C1076
:100CF00010208840304078B32068006800F0080079
:100D000050B394F85C1010208840A86020680068F8
:100D100000F4802080B12068006800F4002028B929
:100D2000206CC8B12046216C884715E0A06C98B1B2
:100D30002046A16C88470FE02068006800F48070AE
:100D400028B92068006820F0080021680860206C3D
:100D500010B12046216C884794F85C102020884010
:100D60003040002865D02068006800F0100000289E
:100D70005FD094F85C1020208840A86094F835007B
:100D8000052828D12068006820F016002168086036
:100D90002068406920F0800021684861206C08B913
:100DA000A06C28B12068006820F008002168086065
:100DB00094F85C103F208840A86000BF002084F8B1
:100DC000340000BF012084F83500206D10B12046AA
:100DD000216D8847F8BD2068006800F4802080B14C
:100DE0002068006800F4002028B9606C10B120462B
:100DF000616C88471DE0E06BD8B12046E16B884705
:100E000017E02068006800F4807068B92068006806
:100E100020F010002168086000BF002084F8340032
:100E200000BF012084F83500E06B10B12046E16B73
:100E30008847606D38B3606D00F00100F0B10520A7
:100E400084F835002068006820F0010021680860FF
:100E500000BF0098401C0090B84200D905E020680F
:100E6000006800F001000028F3D100BF00BF00209F
:100E700084F8340000BF012084F83500E06C10B124
:100E80002046E16C884700BFA4E700003000002046
:100E90002DE9F0410446002500F0D2F9074614B9C7
:100EA0000120BDE8F081606A00B100BF00BF0020F2
:100EB00084F8340000BF022084F835002068006800
:100EC00020F00100216808600AE000F0B9F9C01BB9
:100ED000052805D920206065032084F83500E0E767
:100EE0002068006800F001000028EED12068056845
:100EF00021480540D4E901010843E168084321691C
:100F0000084361690843A1690843E1690843216A0C
:100F100008430543606A042803D1D4E90B01084360
:100F20000543206805602068456925F00705606A6B
:100F30000543606A04280DD1A06A0543E06A48B100
:100F40002046FFF793FB28B140206065012084F81C
:100F50003500A6E7206845612046FFF76DFB064691
:100F600094F85C103F208840B0600020606501204C
:100F700084F83500002094E73F8010F02DE9F04719
:100F800004460D4616461F464FF00008D4F8589008
:100F900000BF94F83400012802D10220BDE8F08798
:100FA000012084F8340000BF94F8350001282BD1CB
:100FB000022084F83500002060653B463246294611
:100FC0002046FFF7A8FB94F85C103F208840C9F842
:100FD00008002068006840F016002168086020685A
:100FE000406940F0800021684861206C28B1206889
:100FF000006840F00800216808602068006840F040
:1010000001002168086006E000BF002084F8340079
:1010100000BF4FF002084046C0E70000F8B50246A6
:101020000B460025002400200021DCE0012606FA02
:1010300001F51E6806EA0504AC4273D15E68022E13
:1010400002D05E68122E13D1CF0802F1200656F8A6
:1010500027004E07F70E0F26BE40B0434F07FF0E86
:101060001E69BE403043CF0802F1200646F8270033
:1010700010684F000326BE40B0431E7906F00306F9
:101080004F00BE40304310605E68012E08D05E689D
:10109000022E05D05E68112E02D05E68122E13D18A
:1010A00090684F000326BE40B0434F00DE68BE404C
:1010B00030439060506801268E40B0431E79C6F3DD
:1010C00000168E4030435060D0684F000326BE406B
:1010D000B0434F009E68BE403043D0605E6806F06B
:1010E0008056B6F1805F7DD100BF00260096404E4D
:1010F000366846F480463E4F3E603E46366806F40B
:101100008046009600BF00BF3A4E8F0856F8270071
:101110008E07370F0F26BE40B043374EB24202D182
:10112000002624E05EE0354EB24201D101261EE0E9
:10113000334EB24201D1022619E0324EB24201D101
:10114000032614E0304EB24201D104260FE02F4EA8
:10115000B24201D105260AE02D4EB24201D1062647
:1011600005E02C4EB24201D1072600E008268F0789
:101170003F0FBE4030431F4E8F0846F82700264ED3
:101180003068A0435E6806F48036B6F5803F00D133
:101190002043214E3060361D3068A0435E6806F45F
:1011A0000036B6F5003F00D120431B4E361D30609F
:1011B000361D3068A0435E6806F48016B6F5801FC1
:1011C00000D12043144E08363060361D3068A043ED
:1011D0005E6806F40016B6F5001F00D120430E4EDF
:1011E0000C363060491C1029FFF420AFF8BD000018
:1011F0004438024008380140000002400004024028
:1012000000080240000C024000100240001402409E
:1012100000180240001C0240003C014002461369D5
:101220000B400BB1012000E00020704742694A40AA
:10123000426170470AB1816101E00B04836170472C
:10124000014800687047000024000020034800683F
:1012500003490978084401490860704724000020C8
:101260002C00002010B50D48006840F400700B49B8
:1012700008600846006840F480600860084600681E
:1012800040F480700860032000F0A0F8002000F017
:1012900007F800F02BF8002010BD0000003C0240D1
:1012A00070B504460E4800784FF47A71B1FBF0F047
:1012B0000C490968B1FBF0F5284600F03CFD08B187
:1012C000012070BD102C07D200222146501E00F0D4
:1012D0003EF80548046001E00120F2E70020F0E755
:1012E0002C000020300000202800002008B500BF9E
:1012F000002000900E48006840F480400C490860CF
:101300000846006800F48040009000BF00BF00BFA6
:1013100000200090081F006840F08050091F0860FE
:101320000846006800F08050009000BF00BF08BD74
:101330004438024000BF00F01F02012191404209E1
:10134000920002F1E022C2F8001100BF70472DE9BF
:10135000F05F80460D461646002701F00BFA07465F
:1013600039462A46334601F00700C0F1070ABAF1B0
:10137000040F02D94FF0040A01E0C0F1070AD14678
:1013800000F1040ABAF1070F02D24FF0000A01E09F
:10139000A0F1030AD4464FF0010A0AFA09FAAAF1A9
:1013A000010A0AEA020A0AFA0CFA4FF0010B0BFAD8
:1013B0000CFBABF1010B0BEA030B4AEA0B042146D1
:1013C000404601F0DFF9BDE8F09F000000BF00F0EB
:1013D0000702064B19684FF6FF031940044B0B43F5
:1013E00043EA0221014B196000BF70470CED00E099
:1013F0000000FA05F8B5044600250026207800F024
:10140000010020B9207800F0040004282FD100202A
:101410005B498866FFF714FF054606E0FFF710FFFB
:10142000401B022801D90320F8BD56480068C0F3CC
:10143000C0600028F2D160688101207A41EA007022
:1014400050498431086001204D498866FFF7F8FE55
:10145000054606E0FFF7F4FE401B022801D90320F1
:10146000E2E748480068C0F3C0600028F2D0207866
:1014700000F0020002287DD100BF0020009041480A
:101480004030006840F080503E49403108600846D6
:10149000006800F08050009000BF00BF3A4800682C
:1014A00040F4807038490860FFF7CAFE054606E040
:1014B000FFF7C6FE401B022801D90320B4E73248DB
:1014C000006800F480700028F2D02E487030006868
:1014D00000F440764EB3A08900F44070B04224D0AE
:1014E00028487030006820F44076012027490860C1
:1014F00000200860234870300660006800F001009A
:1015000098B1FFF79DFE054608E0FFF799FE401BE6
:1015100041F28831884201D9032085E719487030AB
:101520000068C0F340000028EFD000BFA08900F49D
:101530004070B0F5407F0CD112480830006820F4AC
:10154000F810134AE168114008430E490831086059
:1015500007E00C480830006820F4F8100949083109
:101560000860084870300068A189C1F30B01084386
:10157000044900E002E07031086000BF002053E73A
:10158000000047420038024000700040400E4742D1
:10159000FFFCFF0F70B504460D460CB9012070BD6D
:1015A0005848006800F00F00A84209D255490D7054
:1015B0000846006800F00F00A84201D00120EEE7C5
:1015C000207800F0020002281DD1207800F00400ED
:1015D000042805D14C48006840F4E0504A490860AE
:1015E000207800F00800082805D14748006840F43A
:1015F0006040454908604448006820F0F000A16858
:10160000084341490860207800F00100A8B36068F1
:10161000012807D13C4808380068C0F34040B8B9F9
:101620000120BCE76068022802D06068032807D167
:10163000354808380068C0F3406048B90120AEE77B
:10164000314808380068C0F3400008B90120A6E717
:101650002D48006820F00300616808432A490860AB
:10166000FFF7EEFD064609E0FFF7EAFD801B41F2B9
:101670008831884202D9032091E707E022480068B8
:1016800000F00C006168B0EB810FEDD11D480068DF
:1016900000F00F00A84209D91A490D7008460068E9
:1016A00000F00F00A84201D0012078E7207800F078
:1016B0000400042807D11448006820F4E050E168D1
:1016C000084311490860207800F00800082808D174
:1016D0000D48006820F46040216940EAC1000A49D1
:1016E000086000F017F808490968C1F30311074AB8
:1016F000515CC840064908600020FFF7D1FD00207A
:101700004DE70000003C0240083802400432000867
:10171000300000202DE9F047002400250026A146D6
:101720002548006800F00C0020B1042805D00828E6
:101730003AD105E0DFF8849039E0DFF8849036E0B4
:101740001D48001F006800F03F041B48001F006890
:1017500000F4800078B11A481749091F0968C1F3DD
:101760008811A0FB01700146224600233846FEF78F
:1017700085FD05460EE011480F49091F0968C1F3B0
:101780008811A0FB01700146224600233846FEF76F
:1017900075FD05460848001F0068C0F30140401C65
:1017A0004600B5FBF6F902E0DFF8109000BF00BF7D
:1017B0004846BDE8F0870000083802400024F400E5
:1017C00000127A00F8B504460CB90120F8BD207863
:1017D00000F00100002874D0F948006800F00C0007
:1017E00004280DD0F648006800F00C00082813D13A
:1017F000F348001F006800F48000B0F5800F0BD1A3
:10180000EF4808380068C0F34040002859D06068AD
:10181000002856D10120D9E700BF6068B0F5803FAD
:1018200008D1E7480838006840F48030E4490839B6
:1018300008601EE06068B0F5A02F0DD1E0480838C0
:10184000006840F48020DE490839086008460068D6
:1018500040F4803008600CE0D9480838006820F473
:101860008030D749083908600846006820F4802095
:10187000086000BF606890B1FFF7E2FC054606E033
:10188000FFF7DEFC401B642801D903209EE7CC480B
:1018900008380068C0F340400028F1D011E0FFF79D
:1018A000CFFC054606E0FFF7CBFC401B642801D9BE
:1018B00003208BE7C24808380068C0F34040002886
:1018C000F1D1207800F0020002285FD1BC48006806
:1018D00000F00C0058B1BA48006800F00C0008286D
:1018E0001CD1B748001F006800F48000B0B9B448AC
:1018F00008380068C0F3400020B1E068012801D03A
:10190000012063E7AE480838006820F0F80021693C
:1019100040EAC100AA490839086037E0E06800B32E
:101920000120A8490860FFF78BFC054606E0FFF799
:1019300087FC401B022801D9032047E7A04808384C
:101940000068C0F340000028F1D09D4808380068C6
:1019500020F0F800216940EAC1009949083908607F
:1019600014E0002097490860FFF76AFC054606E08E
:10197000FFF766FC401B022801D9032026E79048A8
:1019800008380068C0F340000028F1D1207800F04A
:10199000080008282CD16069A8B101208A49086094
:1019A000FFF74EFC054606E0FFF74AFC401B022805
:1019B00001D903200AE782486C300068C0F3400078
:1019C0000028F1D014E000207F490860FFF738FCC0
:1019D000054606E0FFF734FC401B022801D903202E
:1019E000F4E677486C300068C0F340000028F1D17D
:1019F000207800F00400042870D1002670483830A8
:101A0000006800F0805090B900BF002000906C4842
:101A10003830006840F08050694938310860084625
:101A2000006800F08050009000BF00BF01266748AA
:101A3000006800F48070B0B96448006840F48070B9
:101A400062490860FFF7FCFB054606E0FFF7F8FB7C
:101A5000401B022801D90320B8E65C48006800F466
:101A600080700028F2D000BFA068012808D1544837
:101A70006830006840F001005149683108601DE09D
:101A8000A06805280DD14E486830006840F0040079
:101A90004B49683108600846006840F00100086062
:101AA0000CE047486830006820F001004449683184
:101AB00008600846006820F00400086000BFA068C5
:101AC000A8B1FFF7BDFB054609E0FFF7B9FB401BD6
:101AD00041F28831884202D9032077E626E038486F
:101AE00068300068C0F340000028EED013E0FFF734
:101AF000A7FB054608E0FFF7A3FB401B41F2883136
:101B0000884201D9032061E62D4868300068C0F39F
:101B100040000028EFD1012E07D129483830006855
:101B200020F0805026493831086000BFA069B8B362
:101B30002348006800F00C0008285ED0A069022845
:101B400046D100201F490866FFF77AFB054606E0EC
:101B5000FFF776FB401B022801D9032036E6184820
:101B600008380068C0F340600028F1D1D4E90701CB
:101B70000843616A40EA81110122A06AC2EB500069
:101B800041EA00412C20005D41EA00600C49091F38
:101B9000086001200B490866FFF752FB054607E085
:101BA0002DE0FFF74DFB401B022801D903200DE675
:101BB000034808380068C0F340600028F1D01EE0F8
:101BC0000838024000004742800E47420070004043
:101BD00000200C490866FFF733FB054606E0FFF7D7
:101BE0002FFB401B022801D90320EFE506480068BF
:101BF000C0F340600028F2D101E00120E6E50020BA
:101C0000E4E50000000047420038024010B50446F9
:101C10000CB9012010BD607F20B90020207720463C
:101C200000F060F80220607700BFCA202168486297
:101C300053202168486200BF204600F09BFF40B15E
:101C400000BFFF202168486200BF042060770120A8
:101C5000E0E720688068224908402168886021699F
:101C600060680843616908432168896808432168FE
:101C700088602168E068086120680169208941EA7C
:101C80000040216808612068C06820F08000216859
:101C9000C8602068806800F0200060B9204600F02D
:101CA0002DF840B100BFFF202168486200BF04202A
:101CB00060770120AEE72068006C20F48020216866
:101CC00008642068006CA16908432168086400BFAB
:101CD000FF202168486200BF01206077002099E75B
:101CE000BFFF8FFF034A0168914202D10121024ADE
:101CF00011607047002800403C0E474270B5044612
:101D000000252068C06820F0A0002168C860FFF7A7
:101D100097FA054607E0FFF793FA401BB0F57A7F84
:101D200001D9032070BD2068C06800F020000028A1
:101D3000F1D00020F6E770B504462546681EB0F1E4
:101D4000807F01D301200FE0681E4FF0E021486141
:101D50000F214FF0FF3000F015FD00204FF0E02183
:101D6000886107200861002070BD7047704710B57A
:101D70000346002200BF93F83800012801D1022059
:101D800010BD012083F8380000BF22F0FF00CC68AE
:101D900040EA040222F440708C6840EA040222F413
:101DA00080604C6840EA040222F400600C6840EA5B
:101DB000040222F480500C6940EA040222F400502C
:101DC0004C6940EA040222F480408C6940EA040233
:101DD00022F400408C6940EA04021868426400BFA3
:101DE000002083F8380000BF00BFC9E7024600BFEB
:101DF00092F83800012801D102207047012082F8B2
:101E0000380000BF022082F839001068406820F0D6
:101E1000700013685860106840680B6818431368B6
:101E200058601068806820F080001368986010681F
:101E300080684B68184313689860012082F8390065
:101E400000BF002082F8380000BF00BFD5E710B502
:101E500004460CB9012010BD94F8390028B90020BF
:101E600084F83800204600F00DF8022084F839008C
:101E7000211D206800F050FF012084F83900002067
:101E8000E9E7000038B5044619492068884218D1AE
:101E900000BF002000901748006840F0010015497D
:101EA00008600846006800F00100009000BF00BF15
:101EB000002211461920FFF74AFA1920FFF73AFAD3
:101EC00015E00D492068884211D100BF0020009024
:101ED0000848001F006840F004000649091F086018
:101EE0000846006800F00400009000BF00BF38BD45
:101EF00000000140443802400008004001460868E4
:101F0000C06840F001000A68D0600868006840F0CE
:101F100001000A681060002070472DE9F041044676
:101F20000D46002600BF94F83800012802D1022097
:101F3000BDE8F081012084F8380000BF022084F859
:101F400039002068866826F0770626F47F462068E8
:101F50008660286850283BD00CDC202860D004DC48
:101F6000002853D0102865D155E030285DD0402896
:101F700060D141E0602835D070280DD0B0F5805F89
:101F800003D0B0F5005F55D115E02068806820F0DF
:101F90000700216888604EE0D5E902136A6820686E
:101FA00000F03AFF2068866826F0770646F077064C
:101FB000206886603FE0D5E902136A68206800F077
:101FC0002BFF2068806840F480402168886032E000
:101FD000EA686968206801F015F85021206800F06F
:101FE00027FF28E0EA686968206801F020F860218E
:101FF000206800F01DFF1EE0EA686968206801F0B3
:1020000001F84021206800F013FF14E0002120684F
:1020100000F00EFF0FE01021206800F009FF0AE039
:102020002021206800F004FF05E03021206800F046
:10203000FFFE00E000BF00BF012084F8390000BFB0
:10204000002084F8380000BF00BF71E7704710B56A
:10205000044620680069C0F34000D8B12068C06819
:10206000C0F34000B0B16FF00200216808610120A8
:1020700020762068806900F0030018B12046FFF741
:10208000E5FF05E0204600F0DFF8204600F07CF98F
:102090000020207620680069C0F38000D8B1206855
:1020A000C068C0F38000B0B16FF00400216808611F
:1020B000022020762068806900F4407018B1204624
:1020C000FFF7C4FF05E0204600F0BEF8204600F010
:1020D0005BF90020207620680069C0F3C000D8B109
:1020E0002068C068C0F3C000B0B16FF0080021687C
:1020F0000861042020762068C06900F0030018B150
:102100002046FFF7A3FF05E0204600F09DF820469B
:1021100000F03AF90020207620680069C0F3001032
:10212000D8B12068C068C0F30010B0B16FF01000E3
:1021300021680861082020762068C06900F440709A
:1021400018B12046FFF782FF05E0204600F07CF83A
:10215000204600F019F9002020762068006900F080
:10216000010058B12068C06800F0010030B16FF084
:10217000010021680861204600F02EF920680069FE
:10218000C0F3C01058B12068C068C0F3C01030B1AF
:102190006FF08000216808612046FFF7E6FD2068A7
:1021A0000069C0F3801058B12068C068C0F3801087
:1021B00030B16FF0400021680861204600F00DF951
:1021C00020680069C0F3401058B12068C068C0F3AF
:1021D000401030B16FF02000216808612046FFF701
:1021E000C5FD10BD10B586B00446142101A8FEF748
:1021F0007DF81249206888421DD100BF0020009060
:102200000F48006840F001000D490860084600686A
:1022100000F00100009000BF00BF4FF4E0600190AB
:10222000022002900020039004900120059001A953
:102230000448FEF7F3FE06B010BD000000000140A8
:102240003038024000000240704770B504460D4629
:10225000164600BF94F83800012801D1022070BD55
:10226000012084F8380000BF022084F8390036B11C
:10227000042E1BD0082E31D00C2E5ED145E029460D
:10228000206800F0DFFD2068806940F008002168C8
:1022900088612068806920F00400216888612068D6
:1022A0008069296908432168886147E029462068D8
:1022B00000F000FE2068806940F4006021688861B9
:1022C0002068806920F480602168886120688069C6
:1022D000296940EA0120216888612FE029462068A9
:1022E00000F024FE2068C06940F008002168C86141
:1022F0002068C06920F004002168C8612068C069B6
:10230000296908432168C86118E02946206800F05F
:1023100049FE2068C06940F400602168C8612068F7
:10232000C06920F480602168C8612068C06929699B
:1023300040EA01202168C86100E000BF00BF012021
:1023400084F8390000BF002084F8380000BF00BFC7
:1023500085E710B504460CB9012010BD94F839008A
:1023600028B9002084F83800204600F00CF802203C
:1023700084F83900211D206800F0CEFC012084F88B
:1023800039000020E9E770477047000030B5044687
:102390000D4601222946206800F030FD0C492068D6
:1023A000884203D00B492068884201D1012000E017
:1023B000002028B12068406C40F400402168486447
:1023C0002068006840F0010021680860002030BDEE
:1023D00000000140000401407047704700BFFEE765
:1023E0001FB5002000900190029003901C481D49E9
:1023F00008604FF48030486000211A488160012154
:1024000001610021816101624FF08051C1624FF092
:10241000106181620021C1600221C161012101635B
:1024200000214161FEF75AFA08B1FEF78BF900204E
:102430000090012001900320029069460948FEF7B0
:1024400083F908B1FEF77EF9012000900220019087
:1024500069460448FEF778F908B1FEF773F91FBD25
:10246000002001403C28002008B500BF002000905B
:102470000A48006840F4800008490860084600687F
:1024800000F48000009000BF00BF002211463820F9
:10249000FEF75DFF3820FEF74DFF08BD30380240E3
:1024A00000B587B0142102A8FDF720FF00BF00206F
:1024B00001903648006840F004003449086008463E
:1024C000006800F00400019000BF00BF00BF0020C2
:1024D00001900846006840F08000086008460068E7
:1024E00000F08000019000BF00BF00BF00200190FD
:1024F0000846006840F0010008600846006800F0E7
:102500000100019000BF00BF00BF002001900846FD
:10251000006840F0020008600846006800F0020011
:10252000019000BF00BF00224FF4E0511848FEF7B1
:1025300081FE48F20C0002900020039001200490DC
:1025400002A91448FEF76AFD302002900020039093
:102550000120049002A90E48FEF760FD04200290BD
:10256000002003900120049002A90B48FEF756FDBD
:102570004FF4E05002900120039000200490059059
:1025800002A90348FEF74AFD07B000BD30380240FB
:1025900000080240000002400004024010B50A4852
:1025A0000A490860002048607F2108488160FF21B7
:1025B000C1600021016141618161FFF727FB08B122
:1025C000FEF7C0F810BD000000280040E4280020FD
:1025D00000B595B0002011901290139014900F90B8
:1025E00010901C2108A8FDF781FE1C2101A8FDF711
:1025F0007DFE34483449086000204860002132489C
:10260000816041F26701C160002101614161FFF712
:102610001EFC08B1FEF796F84FF48050119011A9F6
:102620002948FFF77AFC08B1FEF78CF82648FFF737
:1026300090FE08B1FEF786F800200F9010900FA9C9
:102640002148FFF7D3FB08B1FEF77CF86020089023
:1026500040F63400099000200A900B900C900D90E9
:102660000E90002208A91848FFF7EFFD08B1FEF709
:1026700069F800200990042208A91348FFF7E5FD36
:1026800008B1FEF75FF8082208A90F48FFF7DDFD43
:1026900008B1FEF757F800200190029003900490D3
:1026A00005904FF4005006900020079001A90648BD
:1026B000FFF75DFB08B1FEF745F80348FFF792FD11
:1026C00015B000BD000001400429002000B58DB008
:1026D000002009900A900B900C90079008901C2104
:1026E0006846FDF703FE1F481F4908600020486048
:1026F00000211D48816040F24731C1600021016125
:10270000FFF7A5FB08B1FEF71DF84FF480500990C4
:1027100009A91548FFF701FC08B1FEF713F81248A4
:10272000FFF717FE08B1FEF70DF80020079008909C
:1027300007A90D48FFF75AFB08B1FEF703F8602020
:1027400000904FF4D27001900020029004900C226F
:1027500069460548FFF779FD08B1FDF7F3FF0DB0B5
:1027600000BD0000000800404029002000BFFEE737
:102770007047000002480068C0F302207047000064
:102780000CED00E010B5002807DA0A07140E054A20
:1027900000F00F031B1FD45403E00A07130E024A74
:1027A000135410BD18ED00E000E400E070B50546DC
:1027B00011480079114901EB001472B6607A38B102
:1027C000607A401E60720020A080A07262B670BD68
:1027D000A580207A40F0010020720749087900F0B6
:1027E000E3F862B6FDF712FD03480079034901EBF7
:1027F0000010807AEBE70000FC290020BC290020B3
:1028000070B50546002672B6154800EB0514207A0F
:1028100000F0010050B1207A20F00100207228461B
:1028200000F0D4F80020A080A07201263EB10D482F
:102830004079A84203DB0B480079A8420BD1607AAB
:10284000FF2808DA607A401C6072607AE17A884278
:1028500001DD607AE07262B6FDF7D8FC70BD000061
:10286000BC290020FC29002010B572B600200C49BC
:102870004872082008600320087110208872002424
:1028800005E00020074901EB04110860641C032CDB
:10289000F7DB0549054800F02FF80249086310BD31
:1028A000FC290020BC290020B8290020E5290008C7
:1028B0002DE9F04106460F4614469846032C02DBEC
:1028C0000120BDE8F0810B4800EB0410006808B15E
:1028D0000220F6E7074800EB04153946304600F0C1
:1028E0000BF8286000206872A880204600F06EF87F
:1028F0000020E6E7BC290020024608464FF080731E
:102900000360031F18461A603838704770B50446D4
:10291000002C0DDD07480079074901EB001572B660
:10292000AC800449087900F03FF862B6FDF76EFC10
:1029300070BD0000FC290020BC29002030B51848DB
:10294000407A00282AD0174C002525E072B6A089CD
:1029500010B1A089401EA081A08850B1A088401E5F
:1029600080B2A080A8B90120A072E8B200F02EF8D1
:102970000FE00B480079A8420BD1A079FF2808DAB4
:10298000A079401CA071A079E179884201DDA0798D
:10299000E07162B610346D1C032DD7DB30BD000032
:1029A000FC290020BC29002001228240D143054A95
:1029B00012680A40034B1A600022034B03EB00131A
:1029C0009A717047FC290020BC290020012202FADC
:1029D00000F1034A12680A43014B1A607047000075
:1029E000FC29002000BFFEE710B50020094908704F
:1029F00001200949087000200649486106494861DC
:102A0000C8200449C8600023012204490448FFF794
:102A10004FFF10BD1C2B0020502B0020902C0020BD
:102A2000252A000807E00020FFF7C0FE4FF4805180
:102A30000148FEF7FBFBF6E70008024010B5002353
:102A40001A4602490248FFF733FF10BD182B002039
:102A5000552A000806E000F053F800F00FFB0A20AA
:102A6000FFF754FFF7E7000010B5002302220249E8
:102A70000248FFF71DFF10BDA02D0020812A00088D
:102A80004FF400400649C8600648486007E04FF42C
:102A900080610548FEF7CAFBC820FFF737FFF6E75D
:102AA000942C002085EB51000008024030B501460F
:102AB000D1E900452C440C600A68CB68100D0E4C1F
:102AC00034F8100040F20D2444434FF4804505EBE8
:102AD000C404E00B584300F50040400CB2F1004F35
:102AE00003D940F63404201A01E000F63400034C08
:102AF0002468606330BD00001C32000804290020F7
:102B000010B500244FF400411648FEF787FB08B9C2
:102B100044F0010410211448FEF780FB08B944F08A
:102B2000020404210F48FEF779FB08B944F00404BD
:102B300008210C48FEF772FB08B944F00804202174
:102B40000948FEF76BFB08B944F01004042107485C
:102B5000FEF764FB08B944F020042146044800F065
:102B6000BEFA10BD0000024000080240000402400E
:102B7000082A002070B5044600252068C06800F0CF
:102B80004000A0B9681E2168C860FEF759FB0546E1
:102B900007E0FEF755FB401BB0F57A7F01D9032013
:102BA00070BD2068C06800F040000028F1D000200F
:102BB000F6E7704710B5FEF749FBFDF701FBFFF79D
:102BC000BDFEFDF71AFB10BD00B597B030210BA874
:102BD000FDF78CFB142106A8FDF788FB002002906E
:102BE00003900490059000BF01902A48006840F0CF
:102BF0008050284908600846006800F08050019025
:102C000000BF00BF00BF002001902348006840F4CF
:102C10008040214908600846006800F48040019027
:102C200000BF00BF09200B904FF480300C900120B2
:102C30001090022011904105129104211391A821B6
:102C4000149102211591042116910BA8FEF7BAFDEB
:102C500008B1FDF777FD0F200690022007900020B5
:102C600008904FF4A05009904FF480500A9005212D
:102C700006A8FEF78FFC08B1FDF764FD0220029064
:102C80000002059002A8FEF7B5FB08B1FDF75AFD5A
:102C900017B000BD40380240007000401448006882
:102CA00040F47000124908601248006840F00100CA
:102CB0001049086000200F49083108600D4800687D
:102CC0000D4908400B4908600C48091D0860081FA1
:102CD000006820F48020091F0860002005490C319D
:102CE00008604FF0006002498039086070470000BA
:102CF00088ED00E000380240FFFFF6FE10300024AF
:102D000010B50348FFF7A3F90248FFF7CFFE10BD47
:102D100004290020942C0020002202682C4B9842A9
:102D20000ED0B0F1804F0BD02A4B984208D02A4BDE
:102D3000984205D0294B984202D0294B984201D1A4
:102D4000012300E000231BB122F070024B681A43FC
:102D50001F4B984220D0B0F1804F1DD01D4B9842A0
:102D60001AD01D4B984217D01C4B984214D01C4BC4
:102D7000984211D01B4B98420ED01B4B98420BD05F
:102D80001A4B984208D01A4B984205D0194B9842DA
:102D900002D0194B984201D1012300E000231BB15E
:102DA00022F44072CB681A4302608B68C3620B68DE
:102DB0008362074B984202D0094B984201D101230C
:102DC00000E000230BB10B690363012343617047EB
:102DD000000001400004004000080040000C0040DA
:102DE000000401400040014000440140004801400F
:102DF00000180040001C00400020004030B50023B7
:102E0000012404FA01F3046A9C430462046A02FA8E
:102E100001F52C43046230BD30B50C4600218168B9
:102E200021F47F4142EA032525432943816030BDD7
:102E30000A460021816821F0700142F0070319431E
:102E40008160704730B5002400220023056A25F018
:102E500001050562026A4368846924F0700424F065
:102E600003040D682C4322F002028D682A430F4DA3
:102E7000A84202D00E4DA84201D1012500E0002554
:102E80006DB122F00802CD682A4322F0040223F437
:102E9000807323F400734D692B438D692B4343608A
:102EA00084614D684563026230BD0000000001404E
:102EB0000004014030B5002400220023056A25F0FB
:102EC00010050562026A4368846924F4E04424F42E
:102ED00040740D6844EA052422F020028D6842EA1D
:102EE0000512104DA84202D00F4DA84201D1012574
:102EF00000E0002585B122F08002CD6842EA05128B
:102F000022F0400223F4806323F400634D6943EA16
:102F100085038D6943EA8503436084614D68856359
:102F2000026230BD000001400004014030B50024C1
:102F300000220023056A25F480750562026A436851
:102F4000C46924F0700424F003040D682C4322F4B7
:102F500000728D6842EA0522104DA84202D0104D41
:102F6000A84201D1012500E0002585B122F40062CC
:102F7000CD6842EA052222F4806223F4805323F4D0
:102F800000534D6943EA05138D6943EA0513436015
:102F9000C4614D68C563026230BD0000000001409D
:102FA0000004014030B5002200230024056A25F406
:102FB00080550562036A4468C26922F4E04222F443
:102FC00040720D6842EA052223F400538D6843EAFB
:102FD00005330A4DA84202D0094DA84201D101256E
:102FE00000E0002525B124F480444D6944EA8514AD
:102FF0004460C2614D680564036230BD0000014059
:103000000004014030B50B46144600210022026A3C
:10301000056A25F001050562816921F0F00141EAA8
:10302000041122F00A021A438161026230BD30B5F8
:103030000B46144600210022056A25F010050562A2
:103040008169026A21F4704141EA043122F0A00250
:1030500042EA03128161026230BD00BFFEE702E076
:1030600008C8121F08C1002AFAD170477047002013
:1030700001E001C1121F002AFBD1704710B50D48B5
:1030800000F01CF80446072C10D2DFE804F00F040F
:103090000A0B0C0D0E004FF400610748FEF7C6F84E
:1030A00005E004E003E002E001E000E000BF00BF53
:1030B00010BD0000082A0020000802400146002040
:1030C0004A7A0B7A9A4209D00B7A01F10A02D05C53
:1030D0000A7A521CD2B202F007020A7270472DE936
:1030E000F04702460C46002011798C46167804EA17
:1030F0000603194344EA060319401460516081EA4B
:103100000C0909EA0108557A0127002322E008EAA0
:103110000709B9F1000F15D003F1010909F0FF0A01
:1031200002F10A0909F805A005F1010909F0FF09F2
:1031300009F007094D4692F80890A94500D10BE027
:10314000557201204FEA47694FEA196703F10109F7
:1031500009F0FF03082BDADB00BFBDE8F0870000B1
:1031600072B6FEF77FF8FFF72FFDFFF799F9FFF72B
:103170007BF9FFF713FAFFF72BFAFFF731F9FFF7A7
:10318000A5FA00211848FFF701F91748FEF7B6FE27
:103190000C211648FFF7FAF81548FDF735FC042214
:1031A00014491348FDF7B0FCFFF75EFBFFF746FC40
:1031B00011490978084310490870FFF715FC0E49BA
:1031C000097808430C490870FFF74EFC0A49097852
:1031D00008430949087000BF074800780028FBD160
:1031E000FCF7F8FF00BFFEE704290020402900207B
:1031F0003C280020842B0020200000200006101610
:103200000006101600000000000000000102030488
:103210000607080900000000010203040000320054
:1032200065009700C900FB002E0160019201C401F6
:10323000F70129025B028D02C002F2022403560349
:103240008903BB03ED031F0452048404B604E8049D
:103250001B054D057F05B105E305160648067A06F0
:10326000AC06DE06110743077507A707D9070B0849
:103270003E087008A208D408060938096A099D09A1
:10328000CF09010A330A650A970AC90AFB0A2D0BFE
:103290005F0B920BC40BF60B280C5A0C8C0CBE0C5B
:1032A000F00C220D540D860DB80DEA0D1C0E4E0EBD
:1032B000800EB10EE30E150F470F790FAB0FDD0F28
:1032C0000F1041107210A410D61008113A116C1191
:1032D0009D11CF110112331264129612C812FA1204
:1032E0002B135D138F13C013F2132414551487147A
:1032F000B914EA141C154D157F15B015E2151316F7
:1033000045167616A816D9160B173C176E179F1779
:10331000D0170218331865189618C718F9182A1903
:103320005B198C19BE19EF19201A511A821AB41A96
:10333000E51A161B471B781BA91BDA1B0B1C3C1C30
:103340006D1C9E1CCF1C001D311D621D931DC41DD4
:10335000F51D261E571E871EB81EE91E1A1F4A1F7E
:103360007B1FAC1FDD1F0D203E206F209F20D02033
:103370000021312161219221C221F32123225422F3
:103380008422B522E522152346237623A623D723BC
:103390000724372467249724C824F824282558258F
:1033A0008825B825E825182648267826A826D82670
:1033B0000827372767279727C727F727262856285C
:1033C0008628B528E528152944297429A329D32955
:1033D000022A322A612A912AC02AF02A1F2B4E2B58
:1033E0007D2BAD2BDC2B0B2C3A2C6A2C992CC82C6A
:1033F000F72C262D552D842DB32DE22D112E402E88
:103400006E2E9D2ECC2EFB2E2A2F582F872FB62FB7
:10341000E42F1330413070309E30CD30FB302A31F4
:1034200058318731B531E331113240326E329C323E
:10343000CA32F832263355338333B133DF330C3499
:103440003A3468349634C434F2341F354D357B3504
:10345000A835D635043631365F368C36BA36E7367F
:10346000153742376F379C37CA37F737243851380A
:103470007E38AB38D9380639333960398C39B939A7
:10348000E639133A403A6C3A993AC63AF23A1F3B57
:103490004C3B783BA53BD13BFE3B2A3C563C833C16
:1034A000AF3CDB3C073D333D603D8C3DB83DE43DEA
:1034B000103E3C3E683E933EBF3EEB3E173F433FCF
:1034C0006E3F9A3FC53FF13F1D40484073409F40CB
:1034D000CA40F64021414C417741A241CE41F941D9
:1034E00024424F427A42A542D042FA4225435043F9
:1034F0007B43A543D043FB43254450447A44A54431
:10350000CF44F94424454E457845A345CD45F7457C
:1035100021464B4675469F46C946F3461C474647DB
:1035200070479A47C347ED47164840486948934853
:10353000BC48E5480F49384961498A49B449DD49E1
:10354000064A2F4A584A804AA94AD24AFB4A244B83
:103550004C4B754B9D4BC64BEE4B174C3F4C684C40
:10356000904CB84CE04C094D314D594D814DA94D11
:10357000D14DF94D204E484E704E984EBF4EE74EFD
:103580000E4F364F5D4F854FAC4FD44FFB4F2250FF
:10359000495070509750BE50E5500C5133515A511C
:1035A0008151A851CE51F5511B52425268528F524F
:1035B000B552DC52025328534E5374539B53C1539C
:1035C000E7530C54325458547E54A454C954EF5405
:1035D00015553A5560558555AA55D055F5551A5685
:1035E0003F5664568A56AF56D356F8561D57425723
:1035F00067578B57B057D557F9571E5842586758D9
:103600008B58AF58D358F8581C59405964598859A9
:10361000AC59CF59F359175A3B5A5E5A825AA55A98
:10362000C95AEC5A0F5B335B565B795B9C5BBF5BA3
:10363000E25B055C285C4B5C6E5C915CB35CD65CC9
:10364000F95C1B5D3E5D605D825DA55DC75DE95D0A
:103650000B5E2D5E4F5E715E935EB55ED75EF85E6B
:103660001A5F3C5F5D5F7F5FA05FC25FE35F0460E6
:103670002560476068608960AA60CB60EB600C6180
:103680002D614E616E618F61AF61D061F061116239
:103690003162516271629162B162D162F162116311
:1036A0003163516370639063AF63CF63EE630E6405
:1036B0002D644C646C648B64AA64C964E864076517
:1036C0002565446563658265A065BF65DD65FC654C
:1036D0001A663866566675669366B166CF66ED669D
:1036E0000A6728674667646781679F67BC67DA6710
:1036F000F767146832684F686C688968A668C368A1
:10370000E068FC681969366952696F698B69A86954
:10371000C469E069FD69196A356A516A6D6A896A26
:10372000A46AC06ADC6AF86A136B2F6B4A6B656B1C
:10373000816B9C6BB76BD26BED6B086C236C3E6C32
:10374000596C746C8E6CA96CC36CDE6CF86C136D68
:103750002D6D476D616D7B6D956DAF6DC96DE36DC1
:10376000FD6D166E306E4A6E636E7C6E966EAF6E39
:10377000C86EE16EFB6E146F2C6F456F5E6F776FD6
:10378000906FA86FC16FD96FF26F0A7022703A7094
:1037900053706B7083709B70B270CA70E270FA7075
:1037A00011712971407158716F7186719D71B47179
:1037B000CB71E271F971107227723E7254726B72A2
:1037C00081729872AE72C472DB72F17207731D73EC
:1037D000337349735E7374738A739F73B573CA735B
:1037E000E073F5730A74207435744A745F747474EA
:1037F00088749D74B274C674DB74F07404751875A3
:103800002D754175557569757D759175A575B87579
:10381000CC75E075F37507761A762D764176547679
:1038200067767A768D76A076B376C676D876EB769E
:10383000FE76107722773577477759776B777D77E4
:103840008F77A177B377C577D777E877FA770B7853
:103850001D782E783F7850786278737884789478E1
:10386000A578B678C778D778E878F878097919799B
:10387000297939794A795A796A7979798979997975
:10388000A979B879C879D779E679F679057A147A79
:10389000237A327A417A507A5F7A6D7A7C7A8B7A9F
:1038A000997AA87AB67AC47AD27AE07AEE7AFC7AF1
:1038B0000A7B187B267B337B417B4F7B5C7B697B60
:1038C000777B847B917B9E7BAB7BB87BC57BD27BFC
:1038D000DE7BEB7BF87B047C107C1D7C297C357CBB
:1038E000417C4D7C597C657C717C7D7C887C947CA2
:1038F0009F7CAB7CB67CC17CCD7CD87CE37CEE7CB1
:10390000F97C047D0E7D197D247D2E7D397D437DDE
:103910004D7D577D627D6C7D767D807D897D937D3B
:103920009D7DA67DB07DB97DC37DCC7DD57DDF7DC0
:10393000E87DF17DFA7D027E0B7E147E1D7E257E64
:103940002E7E367E3E7E477E4F7E577E5F7E677E32
:103950006F7E777E7E7E867E8D7E957E9C7EA47E2B
:10396000AB7EB27EB97EC07EC77ECE7ED57EDC7E4B
:10397000E27EE97EEF7EF67EFC7E027F097F0F7F8E
:10398000157F1B7F217F267F2C7F327F377F3D7FF6
:10399000427F487F4D7F527F577F5C7F617F667F8C
:1039A0006B7F707F747F797F7D7F827F867F8A7F48
:1039B0008F7F937F977F9B7F9F7FA27FA67FAA7F2A
:1039C000AD7FB17FB47FB87FBB7FBE7FC17FC47F37
:1039D000C77FCA7FCD7FD07FD27FD57FD87FDA7F68
:1039E000DC7FDF7FE17FE37FE57FE77FE97FEB7FC0
:1039F000EC7FEE7FF07FF17FF37FF47FF57FF67F42
:103A0000F77FF87FF97FFA7FFB7FFC7FFD7FFD7FEB
:103A1000FE7FFE7FFE7FFF7FFF7FFF7FFF7FFF7FB9
:103A2000FF7FFF7FFE7FFE7FFE7FFD7FFD7FFC7FB0
:103A3000FB7FFA7FF97FF87FF77FF67FF57FF47FD2
:103A4000F37FF17FF07FEE7FEC7FEB7FE97FE77F15
:103A5000E57FE37FE17FDF7FDC7FDA7FD87FD57F83
:103A6000D27FD07FCD7FCA7FC77FC47FC17FBE7F1B
:103A7000BB7FB87FB47FB17FAD7FAA7FA67FA27FD7
:103A80009F7F9B7F977F937F8F7F8A7F867F827FB9
:103A90007D7F797F747F707F6B7F667F617F5C7FC6
:103AA000577F527F4D7F487F427F3D7F377F327FF8
:103AB0002C7F267F217F1B7F157F0F7F097F027F51
:103AC000FC7EF67EEF7EE97EE27EDC7ED57ECE7EDB
:103AD000C77EC07EB97EB27EAB7EA47E9C7E957E84
:103AE0008D7E867E7E7E777E6F7E677E5F7E577E52
:103AF0004F7E477E3E7E367E2E7E257E1D7E147E48
:103B00000B7E027EFA7DF17DE87DDF7DD57DCC7D6B
:103B1000C37DB97DB07DA67D9D7D937D897D807DB2
:103B2000767D6C7D627D577D4D7D437D397D2E7D1B
:103B3000247D197D0E7D047DF97CEE7CE37CD87CB0
:103B4000CD7CC17CB67CAB7C9F7C947C887C7D7C6E
:103B5000717C657C597C4D7C417C357C297C1D7C4D
:103B6000107C047CF87BEB7BDE7BD27BC57BB87B57
:103B7000AB7B9E7B917B847B777B697B5C7B4F7B84
:103B8000417B337B267B187B0A7BFC7AEE7AE07ADA
:103B9000D27AC47AB67AA87A997A8B7A7C7A6D7A54
:103BA0005F7A507A417A327A237A147A057AF679F2
:103BB000E679D779C879B879A979997989797979BC
:103BC0006A795A794A793979297919790979F878A4
:103BD000E878D778C778B678A578947884787378B9
:103BE000627850783F782E781D780B78FA77E877EE
:103BF000D777C577B377A1778F777D776B7759774D
:103C00004777357722771077FE76EB76D876C676CB
:103C1000B376A0768D767A766776547641762D7671
:103C20001A760776F375E075CC75B875A57591753C
:103C30007D756975557541752D7518750475F07428
:103C4000DB74C674B2749D74887474745F744A743F
:103C5000357420740A74F573E073CA73B5739F7377
:103C60008A7374735E73497333731D730773F172D0
:103C7000DB72C472AE72987281726B7254723E7251
:103C800027721072F971E271CB71B4719D718671F6
:103C90006F715871407129711171FA70E270CA70B8
:103CA000B2709B7083706B7053703A7022700A70A0
:103CB000F26FD96FC16FA86F906F776F5E6F456FAE
:103CC0002C6F146FFB6EE16EC86EAF6E966E7C6EDD
:103CD000636E4A6E306E166EFD6DE36DC96DAF6D2D
:103CE000956D7B6D616D476D2D6D136DF86CDE6CA0
:103CF000C36CA96C8E6C746C596C3E6C236C086C34
:103D0000ED6BD26BB76B9C6B816B656B4A6B2F6BEA
:103D1000136BF86ADC6AC06AA46A896A6D6A516AC0
:103D2000356A196AFD69E069C469A8698B696F69B8
:103D3000526936691969FC68E068C368A6688968D1
:103D40006C684F6832681468F767DA67BC679F670A
:103D500081676467466728670A67ED66CF66B16664
:103D600093667566566638661A66FC65DD65BF65DE
:103D7000A06582656365446525650765E864C96477
:103D8000AA648B646C644C642D640E64EE63CF6330
:103D9000AF6390637063516331631163F162D16209
:103DA000B16291627162516231621162F061D061FF
:103DB000AF618F616E614E612D610C61EB60CB6014
:103DC000AA6089606860476025600460E35FC25F45
:103DD000A05F7F5F5D5F3C5F1A5FF85ED75EB55E98
:103DE000935E715E4F5E2D5E0B5EE95DC75DA55D06
:103DF000825D605D3E5D1B5DF95CD65CB35C915C91
:103E00006E5C4B5C285C055CE25BBF5B9C5B795B3A
:103E1000565B335B0F5BEC5AC95AA55A825A5E5AFD
:103E20003B5A175AF359CF59AC59885964594059DC
:103E30001C59F858D358AF588B58675842581E58D9
:103E4000F957D557B0578B57675742571D57F856F4
:103E5000D356AF568A5664563F561A56F555D05526
:103E6000AA55855560553A551555EF54C954A45473
:103E70007E54585432540C54E753C1539B537453DB
:103E80004E5328530253DC52B5528F52685242525D
:103E90001B52F551CE51A85181515A5133510C51F9
:103EA000E550BE509750705049502250FB4FD44FB0
:103EB000AC4F854F5D4F364F0E4FE74EBF4E984E7D
:103EC000704E484E204EF94DD14DA94D814D594D62
:103ED000314D094DE04CB84C904C684C3F4C174C60
:103EE000EE4BC64B9D4B754B4C4B244BFB4AD24A79
:103EF000A94A804A584A2F4A064ADD49B4498A49A4
:103F0000614938490F49E548BC48934869484048E9
:103F10001648ED47C3479A47704746471C47F34644
:103F2000C9469F4675464B462146F745CD45A345B4
:103F300078454E452445F944CF44A5447A4450443D
:103F40002544FB43D043A5437B4350432543FA42DA
:103F5000D042A5427A424F422442F941CE41A24189
:103F600077414C412141F640CA409F407340484050
:103F70001D40F13FC53F9A3F6E3F433F173FEB3E29
:103F8000BF3E933E683E3C3E103EE43DB83D8C3D16
:103F9000603D333D073DDB3CAF3C833C563C2A3C17
:103FA000FE3BD13BA53B783B4C3B1F3BF23AC63A2C
:103FB000993A6C3A403A133AE639B9398C39603952
:103FC00033390639D938AB387E3851382438F73789
:103FD000CA379C376F3742371537E736BA368C36D3
:103FE0005F3631360436D635A8357B354D351F352D
:103FF000F234C434963468343A340C34DF33B13399
:10400000833355332633F832CA329C326E32403213
:104010001132E331B531873158312A31FB30CD309F
:104020009E30703041301330E42FB62F872F582F39
:104030002A2FFB2ECC2E9D2E6E2E402E112EE22DE1
:10404000B32D842D552D262DF72CC82C992C6A2C98
:104050003A2C0B2CDC2BAD2B7D2B4E2B1F2BF02A5F
:10406000C02A912A612A322A022AD329A329742933
:1040700044291529E528B528862856282628F72713
:10408000C7279727672737270827D826A8267826FF
:1040900048261826E825B825882558252825F824F7
:1040A000C8249724672437240724D723A6237623FC
:1040B00046231523E522B522842254222322F3210C
:1040C000C2219221612131210021D0209F206F2027
:1040D0003E200D20DD1FAC1F7B1F4A1F1A1FE91E4B
:1040E000B81E871E571E261EF51DC41D931D621D7A
:1040F000311D001DCF1C9E1C6D1C3C1C0B1CDA1BB3
:10410000A91B781B471B161BE51AB41A821A511AF1
:10411000201AEF19BE198C195B192A19F918C7183A
:104120009618651833180218D0179F176E173C178A
:104130000B17D916A816761645161316E215B015E4
:104140007F154D151C15EA14B91487145514241441
:10415000F213C0138F135D132B13FA12C8129612A9
:10416000641233120112CF119D116C113A11081112
:10417000D610A410721041100F10DD0FAB0F790F85
:10418000470F150FE30EB10E800E4E0E1C0EEA0DFA
:10419000B80D860D540D220DF00CBE0C8C0C5A0C73
:1041A000280CF60BC40B920B5F0B2D0BFB0AC90AF4
:1041B000970A650A330A010ACF099D096A09380975
:1041C0000609D408A20870083E080B08D907A707FB
:1041D000750743071107DE06AC067A064806160681
:1041E000E305B1057F054D051B05E804B60484040D
:1041F00052041F04ED03BB03890356032403F20298
:10420000C0028D025B022902F701C4019201600124
:104210002E01FB00C900970065003200000031004C
:1042200064009600C800FA002D015F019101C301EE
:10423000F60128025A028C02BF02F1022303550341
:104240008803BA03EC031E0451048304B504E70495
:104250001A054C057E05B005E205150647067906E8
:10426000AB06DD06100742077407A607D8070A0841
:104270003D086F08A108D3080509370969099C0999
:10428000CE09000A320A640A960AC80AFA0A2C0BF6
:104290005E0B910BC30BF50B270C590C8B0CBD0C53
:1042A000EF0C210D530D850DB70DE90D1B0E4D0EB5
:1042B0007F0EB00EE20E140F460F780FAA0FDC0F20
:1042C0000E1040107110A310D510071139116B1189
:1042D0009C11CE110012321263129512C712F912FC
:1042E0002A135C138E13BF13F11323145414861472
:1042F000B814E9141B154C157E15AF15E1151216EF
:1043000044167516A716D8160A173B176D179E1771
:10431000CF170118321864189518C618F8182919FB
:104320005A198B19BD19EE191F1A501A811AB31A8E
:10433000E41A151B461B771BA81BD91B0A1C3B1C28
:104340006C1C9D1CCE1CFF1C301D611D921DC31DCD
:10435000F41D251E561E861EB71EE81E191F491F76
:104360007A1FAB1FDC1F0C203D206E209E20CF202B
:10437000FF20302160219121C121F22122225322EC
:104380008322B422E422142345237523A523D623B4
:104390000624362466249624C724F7242725572587
:1043A0008725B725E725172647267726A726D72668
:1043B0000727362766279627C627F6272528552854
:1043C0008528B428E428142943297329A229D2294D
:1043D000012A312A602A902ABF2AEF2A1E2B4D2B50
:1043E0007C2BAC2BDB2B0A2C392C692C982CC72C62
:1043F000F62C252D542D832DB22DE12D102E3F2E80
:104400006D2E9C2ECB2EFA2E292F572F862FB52FAF
:10441000E32F123040306F309D30CC30FA302931EC
:1044200057318631B431E23110323F326D329B3236
:10443000C932F732253354338233B033DE330B3491
:10444000393467349534C334F1341E354C357A35FC
:10445000A735D535033630365E368B36B936E63677
:10446000143741376E379B37C937F6372338503802
:104470007D38AA38D838053932395F398B39B8399F
:10448000E539123A3F3A6B3A983AC53AF13A1E3B4F
:104490004B3B773BA43BD03BFD3B293C553C823C0E
:1044A000AE3CDA3C063D323D5F3D8B3DB73DE33DE2
:1044B0000F3E3B3E673E923EBE3EEA3E163F423FC7
:1044C0006D3F993FC43FF03F1C40474072409E40C3
:1044D000C940F54020414B417641A141CD41F841D1
:1044E00023424E427942A442CF42F94224434F43F1
:1044F0007A43A443CF43FA4324444F447944A44429
:10450000CE44F84423454D457745A245CC45F64574
:1045100020464A4674469E46C846F2461B474547D3
:104520006F479947C247EC4715483F48684892484B
:10453000BB48E4480E49374960498949B349DC49D9
:10454000054A2E4A574A7F4AA84AD14AFA4A234B7B
:104550004B4B744B9C4BC54BED4B164C3E4C674C38
:104560008F4CB74CDF4C084D304D584D804DA84D09
:10457000D04DF84D1F4E474E6F4E974EBE4EE64EF5
:104580000D4F354F5C4F844FAB4FD34FFA4F2150F7
:1045900048506F509650BD50E4500B513251595114
:1045A0008051A751CD51F4511A52415267528E5247
:1045B000B452DB52015327534D5373539A53C05394
:1045C000E6530B54315457547D54A354C854EE54FD
:1045D000145539555F558455A955CF55F45519567D
:1045E0003E5663568956AE56D256F7561C5741571B
:1045F00066578A57AF57D457F8571D5841586658D1
:104600008A58AE58D258F7581B593F5963598759A1
:10461000AB59CE59F259165A3A5A5D5A815AA45A90
:10462000C85AEB5A0E5B325B555B785B9B5BBE5B9B
:10463000E15B045C275C4A5C6D5C905CB25CD55CC1
:10464000F85C1A5D3D5D5F5D815DA45DC65DE85D02
:104650000A5E2C5E4E5E705E925EB45ED65EF75E63
:10466000195F3B5F5C5F7E5F9F5FC15FE25F0360DE
:104670002460466067608860A960CA60EA600B6178
:104680002C614D616D618E61AE61CF61EF61106231
:104690003062506270629062B062D062F062106309
:1046A000306350636F638F63AE63CE63ED630D64FD
:1046B0002C644B646B648A64A964C864E76406650F
:1046C00024654365626581659F65BE65DC65FB6544
:1046D00019663766556674669266B066CE66EC6695
:1046E000096727674567636780679E67BB67D96708
:1046F000F667136831684E686B688868A568C26899
:10470000DF68FB681869356951696E698A69A7694C
:10471000C369DF69FC69186A346A506A6C6A886A1E
:10472000A36ABF6ADB6AF76A126B2E6B496B646B14
:10473000806B9B6BB66BD16BEC6B076C226C3D6C2A
:10474000586C736C8D6CA86CC26CDD6CF76C126D60
:104750002C6D466D606D7A6D946DAE6DC86DE26DB9
:10476000FC6D156E2F6E496E626E7B6E956EAE6E31
:10477000C76EE06EFA6E136F2B6F446F5D6F766FCE
:104780008F6FA76FC06FD86FF16F0970217039708C
:1047900052706A7082709A70B170C970E170F9706D
:1047A000107128713F7157716E7185719C71B37171
:1047B000CA71E171F8710F7226723D7253726A729A
:1047C00080729772AD72C372DA72F07206731C73E4
:1047D000327348735D73737389739E73B473C97353
:1047E000DF73F47309741F74347449745E747374E2
:1047F00087749C74B174C574DA74EF74037517759B
:104800002C754075547568757C759075A475B77571
:10481000CB75DF75F275067619762C764076537671
:10482000667679768C769F76B276C576D776EA7696
:10483000FD760F7721773477467758776A777C77DC
:104840008E77A077B277C477D677E777F9770A784B
:104850001C782D783E784F786178727883789378D9
:10486000A478B578C678D678E778F7780879187993
:10487000287938794979597969797879887998796D
:10488000A879B779C779D679E579F579047A137A71
:10489000227A317A407A4F7A5E7A6C7A7B7A8A7A97
:1048A000987AA77AB57AC37AD17ADF7AED7AFB7AE9
:1048B000097B177B257B327B407B4E7B5B7B687B58
:1048C000767B837B907B9D7BAA7BB77BC47BD17BF4
:1048D000DD7BEA7BF77B037C0F7C1C7C287C347CB3
:1048E000407C4C7C587C647C707C7C7C877C937C9A
:1048F0009E7CAA7CB57CC07CCC7CD77CE27CED7CA9
:10490000F87C037D0D7D187D237D2D7D387D427DD6
:104910004C7D567D617D6B7D757D7F7D887D927D33
:104920009C7DA57DAF7DB87DC27DCB7DD47DDE7DB8
:10493000E77DF07DF97D017E0A7E137E1C7E247E5C
:104940002D7E357E3D7E467E4E7E567E5E7E667E2A
:104950006E7E767E7D7E857E8C7E947E9B7EA37E23
:10496000AA7EB17EB87EBF7EC67ECD7ED47EDB7E43
:10497000E17EE87EEE7EF57EFB7E017F087F0E7F86
:10498000147F1A7F207F257F2B7F317F367F3C7FEE
:10499000417F477F4C7F517F567F5B7F607F657F84
:1049A0006A7F6F7F737F787F7C7F817F857F897F40
:1049B0008E7F927F967F9A7F9E7FA17FA57FA97F22
:1049C000AC7FB07FB37FB77FBA7FBD7FC07FC37F2F
:1049D000C67FC97FCC7FCF7FD17FD47FD77FD97F60
:1049E000DB7FDE7FE07FE27FE47FE67FE87FEA7FB8
:1049F000EB7FED7FEF7FF07FF27FF37FF47FF57F3A
:104A0000F67FF77FF87FF97FFA7FFB7FFC7FFC7FE3
:104A1000FD7FFD7FFD7FFE7FFE7FFE7FFE7FFE7FB1
:104A2000FE7FFE7FFD7FFD7FFD7FFC7FFC7FFB7FA8
:104A3000FA7FF97FF87FF77FF67FF57FF47FF37FCA
:104A4000F27FF07FEF7FED7FEB7FEA7FE87FE67F0D
:104A5000E47FE27FE07FDE7FDB7FD97FD77FD47F7B
:104A6000D17FCF7FCC7FC97FC67FC37FC07FBD7F13
:104A7000BA7FB77FB37FB07FAC7FA97FA57FA17FCF
:104A80009E7F9A7F967F927F8E7F897F857F817FB1
:104A90007C7F787F737F6F7F6A7F657F607F5B7FBE
:104AA000567F517F4C7F477F417F3C7F367F317FF0
:104AB0002B7F257F207F1A7F147F0E7F087F017F49
:104AC000FB7EF57EEE7EE87EE17EDB7ED47ECD7ED3
:104AD000C67EBF7EB87EB17EAA7EA37E9B7E947E7C
:104AE0008C7E857E7D7E767E6E7E667E5E7E567E4A
:104AF0004E7E467E3D7E357E2D7E247E1C7E137E40
:104B00000A7E017EF97DF07DE77DDE7DD47DCB7D63
:104B1000C27DB87DAF7DA57D9C7D927D887D7F7DAA
:104B2000757D6B7D617D567D4C7D427D387D2D7D13
:104B3000237D187D0D7D037DF87CED7CE27CD77CA8
:104B4000CC7CC07CB57CAA7C9E7C937C877C7C7C66
:104B5000707C647C587C4C7C407C347C287C1C7C45
:104B60000F7C037CF77BEA7BDD7BD17BC47BB77B4F
:104B7000AA7B9D7B907B837B767B687B5B7B4E7B7C
:104B8000407B327B257B177B097BFB7AED7ADF7AD2
:104B9000D17AC37AB57AA77A987A8A7A7B7A6C7A4C
:104BA0005E7A4F7A407A317A227A137A047AF579EA
:104BB000E579D679C779B779A879987988797879B4
:104BC0006979597949793879287918790879F7789C
:104BD000E778D678C678B578A478937883787278B1
:104BE00061784F783E782D781C780A78F977E777E6
:104BF000D677C477B277A0778E777C776A77587745
:104C00004677347721770F77FD76EA76D776C576C3
:104C1000B2769F768C7679766676537640762C7669
:104C200019760676F275DF75CB75B775A475907534
:104C30007C756875547540752C7517750375EF7420
:104C4000DA74C574B1749C74877473745E74497437
:104C500034741F740974F473DF73C973B4739E736F
:104C6000897373735D73487332731C730673F072C8
:104C7000DA72C372AD72977280726A7253723D7249
:104C800026720F72F871E171CA71B3719C718571EE
:104C90006E7157713F7128711071F970E170C970B0
:104CA000B1709A7082706A70527039702170097098
:104CB000F16FD86FC06FA76F8F6F766F5D6F446FA6
:104CC0002B6F136FFA6EE06EC76EAE6E956E7B6ED5
:104CD000626E496E2F6E156EFC6DE26DC86DAE6D25
:104CE000946D7A6D606D466D2C6D126DF76CDD6C98
:104CF000C26CA86C8D6C736C586C3D6C226C076C2C
:104D0000EC6BD16BB66B9B6B806B646B496B2E6BE2
:104D1000126BF76ADB6ABF6AA36A886A6C6A506AB8
:104D2000346A186AFC69DF69C369A7698A696E69B0
:104D3000516935691869FB68DF68C268A5688868C9
:104D40006B684E6831681368F667D967BB679E6702
:104D500080676367456727670967EC66CE66B0665C
:104D600092667466556637661966FB65DC65BE65D6
:104D70009F6581656265436524650665E764C8646F
:104D8000A9648A646B644B642C640D64ED63CE6328
:104D9000AE638F636F63506330631063F062D06201
:104DA000B06290627062506230621062EF61CF61F7
:104DB000AE618E616D614D612C610B61EA60CA600C
:104DC000A96088606760466024600360E25FC15F3D
:104DD0009F5F7E5F5C5F3B5F195FF75ED65EB45E90
:104DE000925E705E4E5E2C5E0A5EE85DC65DA45DFE
:104DF000815D5F5D3D5D1A5DF85CD55CB25C905C89
:104E00006D5C4A5C275C045CE15BBE5B9B5B785B32
:104E1000555B325B0E5BEB5AC85AA45A815A5D5AF5
:104E20003A5A165AF259CE59AB59875963593F59D4
:104E30001B59F758D258AE588A58665841581D58D1
:104E4000F857D457AF578A57665741571C57F756EC
:104E5000D256AE56895663563E561956F455CF551E
:104E6000A95584555F5539551455EE54C854A3546B
:104E70007D54575431540B54E653C0539A537353D3
:104E80004D5327530153DB52B4528E526752415255
:104E90001A52F451CD51A7518051595132510B51F1
:104EA000E450BD5096506F5048502150FA4FD34FA8
:104EB000AB4F844F5C4F354F0D4FE64EBE4E974E75
:104EC0006F4E474E1F4EF84DD04DA84D804D584D5A
:104ED000304D084DDF4CB74C8F4C674C3E4C164C58
:104EE000ED4BC54B9C4B744B4B4B234BFA4AD14A71
:104EF000A84A7F4A574A2E4A054ADC49B34989499C
:104F0000604937490E49E448BB48924868483F48E1
:104F10001548EC47C24799476F4745471B47F2463C
:104F2000C8469E4674464A462046F645CC45A245AC
:104F300077454D452345F844CE44A44479444F4435
:104F40002444FA43CF43A4437A434F432443F942D2
:104F5000CF42A44279424E422342F841CD41A14181
:104F600076414B412041F540C9409E407240474048
:104F70001C40F03FC43F993F6D3F423F163FEA3E21
:104F8000BE3E923E673E3B3E0F3EE33DB73D8B3D0E
:104F90005F3D323D063DDA3CAE3C823C553C293C0F
:104FA000FD3BD03BA43B773B4B3B1E3BF13AC53A24
:104FB000983A6B3A3F3A123AE539B8398B395F394A
:104FC00032390539D838AA387D3850382338F63781
:104FD000C9379B376E3741371437E636B9368B36CB
:104FE0005E3630360336D535A7357A354C351E3525
:104FF000F134C3349534673439340B34DE33B03391
:10500000823354332533F732C9329B326D323F320B
:105010001032E231B431863157312931FA30CC3097
:105020009D306F3040301230E32FB52F862F572F31
:10503000292FFA2ECB2E9C2E6D2E3F2E102EE12DD9
:10504000B22D832D542D252DF62CC72C982C692C90
:10505000392C0A2CDB2BAC2B7C2B4D2B1E2BEF2A57
:10506000BF2A902A602A312A012AD229A22973292B
:1050700043291429E428B428852855282528F6270B
:10508000C6279627662736270727D726A7267726F7
:1050900047261726E725B725872557252725F724EF
:1050A000C7249624662436240624D623A5237523F4
:1050B00045231423E422B422832253222222F22104
:1050C000C121912160213021FF20CF209E206E2020
:1050D0003D200C20DC1FAB1F7A1F491F191FE81E43
:1050E000B71E861E561E251EF41DC31D921D611D72
:1050F000301DFF1CCE1C9D1C6C1C3B1C0A1CD91BAC
:10510000A81B771B461B151BE41AB31A811A501AE9
:105110001F1AEE19BD198B195A192919F818C61832
:105120009518641832180118CF179E176D173B1782
:105130000A17D816A716751644161216E115AF15DC
:105140007E154C151B15E914B81486145414231439
:10515000F113BF138E135C132A13F912C7129512A1
:10516000631232120012CE119C116B11391107110A
:10517000D510A310711040100E10DC0FAA0F780F7D
:10518000460F140FE20EB00E7F0E4D0E1B0EE90DF2
:10519000B70D850D530D210DEF0CBD0C8B0C590C6B
:1051A000270CF50BC30B910B5E0B2C0BFA0AC80AEC
:1051B000960A640A320A000ACE099C09690937096D
:1051C0000509D308A1086F083D080A08D807A607F3
:1051D000740742071007DD06AB0679064706150679
:1051E000E205B0057E054C051A05E704B504830405
:1051F00051041E04EC03BA03880355032303F10290
:10520000BF028C025A022802F601C30191015F011C
:105210002D01FA00C8009600640031000000000073
:1052200040520008000000203C28000064030008F1
:10523000A05200083C2800206C0900006E300008D5
:10524000D13234021920421052013324F402FF28D3
:1052500001FF01FF01FF01FF01FF01FF01FF01FF4E
:1052600001FF01FF01FF01FF01FF01FF01FF01FF3E
:1052700001FF01FF01FF01FF01FF01FF01FF01FF2E
:1052800001FF01FF01FF01FF01FF01FF01FF01FF1E
:1052900001FF01FF01FF01FF01FF01FF01FF0157B6
:040000050800018965
:00000001FF
